:020000000328D3
:1000060083160313860183128601061086101530A7
:10001600FB004B30FC00BE30FD00FD0B1028FC0B36
:100026001028FB0B10280000061486101530FB0064
:100036004B30FC00BE30FD00FD0B1F28FC0B1F28BB
:10004600FB0B1F280000061086141530FB004B30F2
:10005600FC00BE30FD00FD0B2E28FC0B2E28FB0BF2
:100066002E280000061486141530FB004B30FC00C9
:10007600BE30FD00FD0B3D28FC0B3D28FB0B3D284B
:06008600000008284528D7
:02400E004A2F37
:00000001FF
